{
	"fundme.sol": {
		"FundMe": {
			"abi": [
				{
					"inputs": [
						{
							"internalType": "address",
							"name": "funder",
							"type": "address"
						}
					],
					"name": "addresstoAmount",
					"outputs": [
						{
							"internalType": "uint256",
							"name": "amount",
							"type": "uint256"
						}
					],
					"stateMutability": "view",
					"type": "function"
				},
				{
					"inputs": [],
					"name": "fund",
					"outputs": [],
					"stateMutability": "payable",
					"type": "function"
				},
				{
					"inputs": [
						{
							"internalType": "uint256",
							"name": "",
							"type": "uint256"
						}
					],
					"name": "funder",
					"outputs": [
						{
							"internalType": "address",
							"name": "",
							"type": "address"
						}
					],
					"stateMutability": "view",
					"type": "function"
				},
				{
					"inputs": [],
					"name": "withdraw",
					"outputs": [],
					"stateMutability": "nonpayable",
					"type": "function"
				}
			],
			"devdoc": {
				"kind": "dev",
				"methods": {},
				"version": 1
			},
			"evm": {
				"assembly": "    /* \"fundme.sol\":116:2573  contract FundMe{... */\n  mstore(0x40, 0x80)\n    /* \"fundme.sol\":198:202  5e18 */\n  0x4563918244f40000\n    /* \"fundme.sol\":177:202  uint256 minimumUsd = 5e18 */\n  0x00\n  sstore\n    /* \"fundme.sol\":116:2573  contract FundMe{... */\n  callvalue\n  dup1\n  iszero\n  tag_1\n  jumpi\n  revert(0x00, 0x00)\ntag_1:\n  pop\n  dataSize(sub_0)\n  dup1\n  dataOffset(sub_0)\n  0x00\n  codecopy\n  0x00\n  return\nstop\n\nsub_0: assembly {\n        /* \"fundme.sol\":116:2573  contract FundMe{... */\n      mstore(0x40, 0x80)\n      jumpi(tag_1, lt(calldatasize, 0x04))\n      shr(0xe0, calldataload(0x00))\n      dup1\n      0x1f2c9238\n      eq\n      tag_2\n      jumpi\n      dup1\n      0x3ccfd60b\n      eq\n      tag_3\n      jumpi\n      dup1\n      0x768a03bc\n      eq\n      tag_4\n      jumpi\n      dup1\n      0xb60d4288\n      eq\n      tag_5\n      jumpi\n    tag_1:\n      revert(0x00, 0x00)\n        /* \"fundme.sol\":211:234  address[] public funder */\n    tag_2:\n      callvalue\n      dup1\n      iszero\n      tag_6\n      jumpi\n      revert(0x00, 0x00)\n    tag_6:\n      pop\n      tag_7\n      0x04\n      dup1\n      calldatasize\n      sub\n      dup2\n      add\n      swap1\n      tag_8\n      swap2\n      swap1\n      tag_9\n      jump\t// in\n    tag_8:\n      tag_10\n      jump\t// in\n    tag_7:\n      mload(0x40)\n      tag_11\n      swap2\n      swap1\n      tag_12\n      jump\t// in\n    tag_11:\n      mload(0x40)\n      dup1\n      swap2\n      sub\n      swap1\n      return\n        /* \"fundme.sol\":660:2564  function withdraw() public {... */\n    tag_3:\n      callvalue\n      dup1\n      iszero\n      tag_13\n      jumpi\n      revert(0x00, 0x00)\n    tag_13:\n      pop\n      tag_14\n      tag_15\n      jump\t// in\n    tag_14:\n      stop\n        /* \"fundme.sol\":241:303  mapping(address funder=>uint256 amount) public addresstoAmount */\n    tag_4:\n      callvalue\n      dup1\n      iszero\n      tag_16\n      jumpi\n      revert(0x00, 0x00)\n    tag_16:\n      pop\n      tag_17\n      0x04\n      dup1\n      calldatasize\n      sub\n      dup2\n      add\n      swap1\n      tag_18\n      swap2\n      swap1\n      tag_19\n      jump\t// in\n    tag_18:\n      tag_20\n      jump\t// in\n    tag_17:\n      mload(0x40)\n      tag_21\n      swap2\n      swap1\n      tag_22\n      jump\t// in\n    tag_21:\n      mload(0x40)\n      dup1\n      swap2\n      sub\n      swap1\n      return\n        /* \"fundme.sol\":365:652  function fund() public payable {... */\n    tag_5:\n      tag_23\n      tag_24\n      jump\t// in\n    tag_23:\n      stop\n        /* \"fundme.sol\":211:234  address[] public funder */\n    tag_10:\n      0x01\n      dup2\n      dup2\n      sload\n      dup2\n      lt\n      tag_25\n      jumpi\n      0x00\n      dup1\n      revert\n    tag_25:\n      swap1\n      0x00\n      mstore\n      keccak256(0x00, 0x20)\n      add\n      0x00\n      swap2\n      pop\n      sload\n      swap1\n      0x0100\n      exp\n      swap1\n      div\n      0xffffffffffffffffffffffffffffffffffffffff\n      and\n      dup2\n      jump\t// out\n        /* \"fundme.sol\":660:2564  function withdraw() public {... */\n    tag_15:\n        /* \"fundme.sol\":748:767  uint256 funderIndex */\n      0x00\n        /* \"fundme.sol\":770:771  0 */\n      0x00\n        /* \"fundme.sol\":748:771  uint256 funderIndex = 0 */\n      swap1\n      pop\n        /* \"fundme.sol\":698:923  for(/*starting index, ending index, step index */ uint256 funderIndex = 0; funderIndex < funder.length; funderIndex++){... */\n    tag_28:\n        /* \"fundme.sol\":787:793  funder */\n      0x01\n        /* \"fundme.sol\":787:800  funder.length */\n      dup1\n      sload\n      swap1\n      pop\n        /* \"fundme.sol\":773:784  funderIndex */\n      dup2\n        /* \"fundme.sol\":773:800  funderIndex < funder.length */\n      lt\n        /* \"fundme.sol\":698:923  for(/*starting index, ending index, step index */ uint256 funderIndex = 0; funderIndex < funder.length; funderIndex++){... */\n      iszero\n      tag_29\n      jumpi\n        /* \"fundme.sol\":831:846  address funders */\n      0x00\n        /* \"fundme.sol\":849:855  funder */\n      0x01\n        /* \"fundme.sol\":856:867  funderIndex */\n      dup3\n        /* \"fundme.sol\":849:868  funder[funderIndex] */\n      dup2\n      sload\n      dup2\n      lt\n      tag_31\n      jumpi\n      tag_32\n      tag_33\n      jump\t// in\n    tag_32:\n    tag_31:\n      swap1\n      0x00\n      mstore\n      keccak256(0x00, 0x20)\n      add\n      0x00\n      swap1\n      sload\n      swap1\n      0x0100\n      exp\n      swap1\n      div\n      0xffffffffffffffffffffffffffffffffffffffff\n      and\n        /* \"fundme.sol\":831:868  address funders = funder[funderIndex] */\n      swap1\n      pop\n        /* \"fundme.sol\":910:911  0 */\n      0x00\n        /* \"fundme.sol\":883:898  addresstoAmount */\n      0x02\n        /* \"fundme.sol\":883:907  addresstoAmount[funders] */\n      0x00\n        /* \"fundme.sol\":899:906  funders */\n      dup4\n        /* \"fundme.sol\":883:907  addresstoAmount[funders] */\n      0xffffffffffffffffffffffffffffffffffffffff\n      and\n      0xffffffffffffffffffffffffffffffffffffffff\n      and\n      dup2\n      mstore\n      0x20\n      add\n      swap1\n      dup2\n      mstore\n      0x20\n      add\n      0x00\n      keccak256\n        /* \"fundme.sol\":883:911  addresstoAmount[funders] = 0 */\n      dup2\n      swap1\n      sstore\n      pop\n        /* \"fundme.sol\":816:923  {... */\n      pop\n        /* \"fundme.sol\":802:815  funderIndex++ */\n      dup1\n      dup1\n      0x01\n      add\n      swap2\n      pop\n      pop\n        /* \"fundme.sol\":698:923  for(/*starting index, ending index, step index */ uint256 funderIndex = 0; funderIndex < funder.length; funderIndex++){... */\n      jump(tag_28)\n    tag_29:\n      pop\n        /* \"fundme.sol\":956:957  0 */\n      0x00\n        /* \"fundme.sol\":942:958  new address[](0) */\n      0xffffffffffffffff\n      dup2\n      gt\n      iszero\n      tag_35\n      jumpi\n      tag_36\n      tag_37\n      jump\t// in\n    tag_36:\n    tag_35:\n      mload(0x40)\n      swap1\n      dup1\n      dup3\n      mstore\n      dup1\n      0x20\n      mul\n      0x20\n      add\n      dup3\n      add\n      0x40\n      mstore\n      dup1\n      iszero\n      tag_38\n      jumpi\n      dup2\n      0x20\n      add\n      0x20\n      dup3\n      mul\n      dup1\n      calldatasize\n      dup4\n      calldatacopy\n      dup1\n      dup3\n      add\n      swap2\n      pop\n      pop\n      swap1\n      pop\n    tag_38:\n      pop\n        /* \"fundme.sol\":933:939  funder */\n      0x01\n        /* \"fundme.sol\":933:958  funder = new address[](0) */\n      swap1\n      dup1\n      mload\n      swap1\n      0x20\n      add\n      swap1\n      tag_39\n      swap3\n      swap2\n      swap1\n      tag_40\n      jump\t// in\n    tag_39:\n      pop\n        /* \"fundme.sol\":1495:1505  msg.sender */\n      caller\n        /* \"fundme.sol\":1487:1515  payable(msg.sender).transfer */\n      0xffffffffffffffffffffffffffffffffffffffff\n      and\n        /* \"fundme.sol\":1487:1538  payable(msg.sender).transfer(address(this).balance) */\n      0x08fc\n        /* \"fundme.sol\":1516:1537  address(this).balance */\n      selfbalance\n        /* \"fundme.sol\":1487:1538  payable(msg.sender).transfer(address(this).balance) */\n      swap1\n      dup2\n      iszero\n      mul\n      swap1\n      mload(0x40)\n      0x00\n      mload(0x40)\n      dup1\n      dup4\n      sub\n      dup2\n      dup6\n      dup9\n      dup9\n      call\n      swap4\n      pop\n      pop\n      pop\n      pop\n      iszero\n      dup1\n      iszero\n      tag_42\n      jumpi\n      returndatacopy(0x00, 0x00, returndatasize)\n      revert(0x00, returndatasize)\n    tag_42:\n      pop\n        /* \"fundme.sol\":2162:2178  bool sendSuccess */\n      0x00\n        /* \"fundme.sol\":2189:2199  msg.sender */\n      caller\n        /* \"fundme.sol\":2181:2205  payable(msg.sender).send */\n      0xffffffffffffffffffffffffffffffffffffffff\n      and\n        /* \"fundme.sol\":2181:2228  payable(msg.sender).send(address(this).balance) */\n      0x08fc\n        /* \"fundme.sol\":2206:2227  address(this).balance */\n      selfbalance\n        /* \"fundme.sol\":2181:2228  payable(msg.sender).send(address(this).balance) */\n      swap1\n      dup2\n      iszero\n      mul\n      swap1\n      mload(0x40)\n      0x00\n      mload(0x40)\n      dup1\n      dup4\n      sub\n      dup2\n      dup6\n      dup9\n      dup9\n      call\n      swap4\n      pop\n      pop\n      pop\n      pop\n        /* \"fundme.sol\":2162:2228  bool sendSuccess = payable(msg.sender).send(address(this).balance) */\n      swap1\n      pop\n        /* \"fundme.sol\":2247:2258  sendSuccess */\n      dup1\n        /* \"fundme.sol\":2239:2294  require(sendSuccess,\"Error in sending the transaction\") */\n      tag_44\n      jumpi\n      mload(0x40)\n      0x08c379a000000000000000000000000000000000000000000000000000000000\n      dup2\n      mstore\n      0x04\n      add\n      tag_45\n      swap1\n      tag_46\n      jump\t// in\n    tag_45:\n      mload(0x40)\n      dup1\n      swap2\n      sub\n      swap1\n      revert\n    tag_44:\n        /* \"fundme.sol\":687:2564  {... */\n      pop\n        /* \"fundme.sol\":660:2564  function withdraw() public {... */\n      jump\t// out\n        /* \"fundme.sol\":241:303  mapping(address funder=>uint256 amount) public addresstoAmount */\n    tag_20:\n      mstore(0x20, 0x02)\n      dup1\n      0x00\n      mstore\n      keccak256(0x00, 0x40)\n      0x00\n      swap2\n      pop\n      swap1\n      pop\n      sload\n      dup2\n      jump\t// out\n        /* \"fundme.sol\":365:652  function fund() public payable {... */\n    tag_24:\n        /* \"fundme.sol\":448:458  minimumUsd */\n      sload(0x00)\n        /* \"fundme.sol\":415:444  msg.value.getConversionRate() */\n      tag_48\n        /* \"fundme.sol\":415:424  msg.value */\n      callvalue\n        /* \"fundme.sol\":415:442  msg.value.getConversionRate */\n      tag_49\n        /* \"fundme.sol\":415:444  msg.value.getConversionRate() */\n      jump\t// in\n    tag_48:\n        /* \"fundme.sol\":415:458  msg.value.getConversionRate() >= minimumUsd */\n      lt\n      iszero\n        /* \"fundme.sol\":407:484  require(msg.value.getConversionRate() >= minimumUsd,\"Didn,t send enough usd\") */\n      tag_50\n      jumpi\n      mload(0x40)\n      0x08c379a000000000000000000000000000000000000000000000000000000000\n      dup2\n      mstore\n      0x04\n      add\n      tag_51\n      swap1\n      tag_52\n      jump\t// in\n    tag_51:\n      mload(0x40)\n      dup1\n      swap2\n      sub\n      swap1\n      revert\n    tag_50:\n        /* \"fundme.sol\":495:501  funder */\n      0x01\n        /* \"fundme.sol\":507:517  msg.sender */\n      caller\n        /* \"fundme.sol\":495:518  funder.push(msg.sender) */\n      swap1\n      dup1\n      0x01\n      dup2\n      sload\n      add\n      dup1\n      dup3\n      sstore\n      dup1\n      swap2\n      pop\n      pop\n      0x01\n      swap1\n      sub\n      swap1\n      0x00\n      mstore\n      keccak256(0x00, 0x20)\n      add\n      0x00\n      swap1\n      swap2\n      swap1\n      swap2\n      swap1\n      swap2\n      0x0100\n      exp\n      dup2\n      sload\n      dup2\n      0xffffffffffffffffffffffffffffffffffffffff\n      mul\n      not\n      and\n      swap1\n      dup4\n      0xffffffffffffffffffffffffffffffffffffffff\n      and\n      mul\n      or\n      swap1\n      sstore\n      pop\n        /* \"fundme.sol\":589:598  msg.value */\n      callvalue\n        /* \"fundme.sol\":559:574  addresstoAmount */\n      0x02\n        /* \"fundme.sol\":559:586  addresstoAmount[msg.sender] */\n      0x00\n        /* \"fundme.sol\":575:585  msg.sender */\n      caller\n        /* \"fundme.sol\":559:586  addresstoAmount[msg.sender] */\n      0xffffffffffffffffffffffffffffffffffffffff\n      and\n      0xffffffffffffffffffffffffffffffffffffffff\n      and\n      dup2\n      mstore\n      0x20\n      add\n      swap1\n      dup2\n      mstore\n      0x20\n      add\n      0x00\n      keccak256\n      sload\n        /* \"fundme.sol\":559:598  addresstoAmount[msg.sender] + msg.value */\n      tag_54\n      swap2\n      swap1\n      tag_55\n      jump\t// in\n    tag_54:\n        /* \"fundme.sol\":529:544  addresstoAmount */\n      0x02\n        /* \"fundme.sol\":529:556  addresstoAmount[msg.sender] */\n      0x00\n        /* \"fundme.sol\":545:555  msg.sender */\n      caller\n        /* \"fundme.sol\":529:556  addresstoAmount[msg.sender] */\n      0xffffffffffffffffffffffffffffffffffffffff\n      and\n      0xffffffffffffffffffffffffffffffffffffffff\n      and\n      dup2\n      mstore\n      0x20\n      add\n      swap1\n      dup2\n      mstore\n      0x20\n      add\n      0x00\n      keccak256\n        /* \"fundme.sol\":529:598  addresstoAmount[msg.sender] = addresstoAmount[msg.sender] + msg.value */\n      dup2\n      swap1\n      sstore\n      pop\n        /* \"fundme.sol\":365:652  function fund() public payable {... */\n      jump\t// out\n        /* \"PriceConverter.sol\":773:1064  function getConversionRate(uint256 ethAmount) internal view returns(uint256) {... */\n    tag_49:\n        /* \"PriceConverter.sol\":841:848  uint256 */\n      0x00\n        /* \"PriceConverter.sol\":861:877  uint256 ethPrice */\n      0x00\n        /* \"PriceConverter.sol\":880:890  getPrice() */\n      tag_57\n        /* \"PriceConverter.sol\":880:888  getPrice */\n      tag_58\n        /* \"PriceConverter.sol\":880:890  getPrice() */\n      jump\t// in\n    tag_57:\n        /* \"PriceConverter.sol\":861:890  uint256 ethPrice = getPrice() */\n      swap1\n      pop\n        /* \"PriceConverter.sol\":932:954  uint256 ethAmountToUsd */\n      0x00\n        /* \"PriceConverter.sol\":982:986  1e18 */\n      0x0de0b6b3a7640000\n        /* \"PriceConverter.sol\":969:978  ethAmount */\n      dup5\n        /* \"PriceConverter.sol\":958:966  ethPrice */\n      dup4\n        /* \"PriceConverter.sol\":958:978  ethPrice * ethAmount */\n      tag_59\n      swap2\n      swap1\n      tag_60\n      jump\t// in\n    tag_59:\n        /* \"PriceConverter.sol\":957:986  (ethPrice * ethAmount) / 1e18 */\n      tag_61\n      swap2\n      swap1\n      tag_62\n      jump\t// in\n    tag_61:\n        /* \"PriceConverter.sol\":932:986  uint256 ethAmountToUsd = (ethPrice * ethAmount) / 1e18 */\n      swap1\n      pop\n        /* \"PriceConverter.sol\":1042:1056  ethAmountToUsd */\n      dup1\n        /* \"PriceConverter.sol\":1035:1056  return ethAmountToUsd */\n      swap3\n      pop\n      pop\n      pop\n        /* \"PriceConverter.sol\":773:1064  function getConversionRate(uint256 ethAmount) internal view returns(uint256) {... */\n      swap2\n      swap1\n      pop\n      jump\t// out\n        /* \"PriceConverter.sol\":349:767  function getPrice() internal view returns(uint256){... */\n    tag_58:\n        /* \"PriceConverter.sol\":391:398  uint256 */\n      0x00\n        /* \"PriceConverter.sol\":410:441  AggregatorV3Interface priceFeed */\n      0x00\n        /* \"PriceConverter.sol\":466:508  0x694AA1769357215DE4FAC081bf1f309aDC325306 */\n      0x694aa1769357215de4fac081bf1f309adc325306\n        /* \"PriceConverter.sol\":410:509  AggregatorV3Interface priceFeed = AggregatorV3Interface(0x694AA1769357215DE4FAC081bf1f309aDC325306) */\n      swap1\n      pop\n        /* \"PriceConverter.sol\":522:535  int256 answer */\n      0x00\n        /* \"PriceConverter.sol\":542:551  priceFeed */\n      dup2\n        /* \"PriceConverter.sol\":542:567  priceFeed.latestRoundData */\n      0xffffffffffffffffffffffffffffffffffffffff\n      and\n      0xfeaf968c\n        /* \"PriceConverter.sol\":542:569  priceFeed.latestRoundData() */\n      mload(0x40)\n      dup2\n      0xffffffff\n      and\n      0xe0\n      shl\n      dup2\n      mstore\n      0x04\n      add\n      0xa0\n      mload(0x40)\n      dup1\n      dup4\n      sub\n      dup2\n      dup7\n      gas\n      staticcall\n      iszero\n      dup1\n      iszero\n      tag_65\n      jumpi\n      returndatacopy(0x00, 0x00, returndatasize)\n      revert(0x00, returndatasize)\n    tag_65:\n      pop\n      pop\n      pop\n      pop\n      mload(0x40)\n      returndatasize\n      not(0x1f)\n      0x1f\n      dup3\n      add\n      and\n      dup3\n      add\n      dup1\n      0x40\n      mstore\n      pop\n      dup2\n      add\n      swap1\n      tag_66\n      swap2\n      swap1\n      tag_67\n      jump\t// in\n    tag_66:\n        /* \"PriceConverter.sol\":520:569  (,int256 answer,,,) = priceFeed.latestRoundData() */\n      pop\n      pop\n      pop\n      swap2\n      pop\n      pop\n        /* \"PriceConverter.sol\":693:697  1e10 */\n      0x02540be400\n        /* \"PriceConverter.sol\":684:690  answer */\n      dup2\n        /* \"PriceConverter.sol\":684:697  answer * 1e10 */\n      tag_68\n      swap2\n      swap1\n      tag_69\n      jump\t// in\n    tag_68:\n        /* \"PriceConverter.sol\":669:698  return uint256(answer * 1e10) */\n      swap3\n      pop\n      pop\n      pop\n        /* \"PriceConverter.sol\":349:767  function getPrice() internal view returns(uint256){... */\n      swap1\n      jump\t// out\n    tag_40:\n      dup3\n      dup1\n      sload\n      dup3\n      dup3\n      sstore\n      swap1\n      0x00\n      mstore\n      keccak256(0x00, 0x20)\n      swap1\n      dup2\n      add\n      swap3\n      dup3\n      iszero\n      tag_70\n      jumpi\n      swap2\n      0x20\n      mul\n      dup3\n      add\n    tag_71:\n      dup3\n      dup2\n      gt\n      iszero\n      tag_72\n      jumpi\n      dup3\n      mload\n      dup3\n      exp(0x0100, 0x00)\n      dup2\n      sload\n      dup2\n      0xffffffffffffffffffffffffffffffffffffffff\n      mul\n      not\n      and\n      swap1\n      dup4\n      0xffffffffffffffffffffffffffffffffffffffff\n      and\n      mul\n      or\n      swap1\n      sstore\n      pop\n      swap2\n      0x20\n      add\n      swap2\n      swap1\n      0x01\n      add\n      swap1\n      jump(tag_71)\n    tag_72:\n    tag_70:\n      pop\n      swap1\n      pop\n      tag_73\n      swap2\n      swap1\n      tag_74\n      jump\t// in\n    tag_73:\n      pop\n      swap1\n      jump\t// out\n    tag_74:\n    tag_75:\n      dup1\n      dup3\n      gt\n      iszero\n      tag_76\n      jumpi\n      0x00\n      dup2\n      0x00\n      swap1\n      sstore\n      pop\n      0x01\n      add\n      jump(tag_75)\n    tag_76:\n      pop\n      swap1\n      jump\t// out\n        /* \"#utility.yul\":88:205   */\n    tag_78:\n        /* \"#utility.yul\":197:198   */\n      0x00\n        /* \"#utility.yul\":194:195   */\n      0x00\n        /* \"#utility.yul\":187:199   */\n      revert\n        /* \"#utility.yul\":334:411   */\n    tag_80:\n        /* \"#utility.yul\":371:378   */\n      0x00\n        /* \"#utility.yul\":400:405   */\n      dup2\n        /* \"#utility.yul\":389:405   */\n      swap1\n      pop\n        /* \"#utility.yul\":334:411   */\n      swap2\n      swap1\n      pop\n      jump\t// out\n        /* \"#utility.yul\":417:539   */\n    tag_81:\n        /* \"#utility.yul\":490:514   */\n      tag_109\n        /* \"#utility.yul\":508:513   */\n      dup2\n        /* \"#utility.yul\":490:514   */\n      tag_80\n      jump\t// in\n    tag_109:\n        /* \"#utility.yul\":483:488   */\n      dup2\n        /* \"#utility.yul\":480:515   */\n      eq\n        /* \"#utility.yul\":470:533   */\n      tag_110\n      jumpi\n        /* \"#utility.yul\":529:530   */\n      0x00\n        /* \"#utility.yul\":526:527   */\n      0x00\n        /* \"#utility.yul\":519:531   */\n      revert\n        /* \"#utility.yul\":470:533   */\n    tag_110:\n        /* \"#utility.yul\":417:539   */\n      pop\n      jump\t// out\n        /* \"#utility.yul\":545:684   */\n    tag_82:\n        /* \"#utility.yul\":591:596   */\n      0x00\n        /* \"#utility.yul\":629:635   */\n      dup2\n        /* \"#utility.yul\":616:636   */\n      calldataload\n        /* \"#utility.yul\":607:636   */\n      swap1\n      pop\n        /* \"#utility.yul\":645:678   */\n      tag_112\n        /* \"#utility.yul\":672:677   */\n      dup2\n        /* \"#utility.yul\":645:678   */\n      tag_81\n      jump\t// in\n    tag_112:\n        /* \"#utility.yul\":545:684   */\n      swap3\n      swap2\n      pop\n      pop\n      jump\t// out\n        /* \"#utility.yul\":690:1019   */\n    tag_9:\n        /* \"#utility.yul\":749:755   */\n      0x00\n        /* \"#utility.yul\":798:800   */\n      0x20\n        /* \"#utility.yul\":786:795   */\n      dup3\n        /* \"#utility.yul\":777:784   */\n      dup5\n        /* \"#utility.yul\":773:796   */\n      sub\n        /* \"#utility.yul\":769:801   */\n      slt\n        /* \"#utility.yul\":766:885   */\n      iszero\n      tag_114\n      jumpi\n        /* \"#utility.yul\":804:883   */\n      tag_115\n      tag_78\n      jump\t// in\n    tag_115:\n        /* \"#utility.yul\":766:885   */\n    tag_114:\n        /* \"#utility.yul\":924:925   */\n      0x00\n        /* \"#utility.yul\":949:1002   */\n      tag_116\n        /* \"#utility.yul\":994:1001   */\n      dup5\n        /* \"#utility.yul\":985:991   */\n      dup3\n        /* \"#utility.yul\":974:983   */\n      dup6\n        /* \"#utility.yul\":970:992   */\n      add\n        /* \"#utility.yul\":949:1002   */\n      tag_82\n      jump\t// in\n    tag_116:\n        /* \"#utility.yul\":939:1002   */\n      swap2\n      pop\n        /* \"#utility.yul\":895:1012   */\n      pop\n        /* \"#utility.yul\":690:1019   */\n      swap3\n      swap2\n      pop\n      pop\n      jump\t// out\n        /* \"#utility.yul\":1025:1151   */\n    tag_83:\n        /* \"#utility.yul\":1062:1069   */\n      0x00\n        /* \"#utility.yul\":1102:1144   */\n      0xffffffffffffffffffffffffffffffffffffffff\n        /* \"#utility.yul\":1095:1100   */\n      dup3\n        /* \"#utility.yul\":1091:1145   */\n      and\n        /* \"#utility.yul\":1080:1145   */\n      swap1\n      pop\n        /* \"#utility.yul\":1025:1151   */\n      swap2\n      swap1\n      pop\n      jump\t// out\n        /* \"#utility.yul\":1157:1253   */\n    tag_84:\n        /* \"#utility.yul\":1194:1201   */\n      0x00\n        /* \"#utility.yul\":1223:1247   */\n      tag_119\n        /* \"#utility.yul\":1241:1246   */\n      dup3\n        /* \"#utility.yul\":1223:1247   */\n      tag_83\n      jump\t// in\n    tag_119:\n        /* \"#utility.yul\":1212:1247   */\n      swap1\n      pop\n        /* \"#utility.yul\":1157:1253   */\n      swap2\n      swap1\n      pop\n      jump\t// out\n        /* \"#utility.yul\":1259:1377   */\n    tag_85:\n        /* \"#utility.yul\":1346:1370   */\n      tag_121\n        /* \"#utility.yul\":1364:1369   */\n      dup2\n        /* \"#utility.yul\":1346:1370   */\n      tag_84\n      jump\t// in\n    tag_121:\n        /* \"#utility.yul\":1341:1344   */\n      dup3\n        /* \"#utility.yul\":1334:1371   */\n      mstore\n        /* \"#utility.yul\":1259:1377   */\n      pop\n      pop\n      jump\t// out\n        /* \"#utility.yul\":1383:1605   */\n    tag_12:\n        /* \"#utility.yul\":1476:1480   */\n      0x00\n        /* \"#utility.yul\":1514:1516   */\n      0x20\n        /* \"#utility.yul\":1503:1512   */\n      dup3\n        /* \"#utility.yul\":1499:1517   */\n      add\n        /* \"#utility.yul\":1491:1517   */\n      swap1\n      pop\n        /* \"#utility.yul\":1527:1598   */\n      tag_123\n        /* \"#utility.yul\":1595:1596   */\n      0x00\n        /* \"#utility.yul\":1584:1593   */\n      dup4\n        /* \"#utility.yul\":1580:1597   */\n      add\n        /* \"#utility.yul\":1571:1577   */\n      dup5\n        /* \"#utility.yul\":1527:1598   */\n      tag_85\n      jump\t// in\n    tag_123:\n        /* \"#utility.yul\":1383:1605   */\n      swap3\n      swap2\n      pop\n      pop\n      jump\t// out\n        /* \"#utility.yul\":1611:1733   */\n    tag_86:\n        /* \"#utility.yul\":1684:1708   */\n      tag_125\n        /* \"#utility.yul\":1702:1707   */\n      dup2\n        /* \"#utility.yul\":1684:1708   */\n      tag_84\n      jump\t// in\n    tag_125:\n        /* \"#utility.yul\":1677:1682   */\n      dup2\n        /* \"#utility.yul\":1674:1709   */\n      eq\n        /* \"#utility.yul\":1664:1727   */\n      tag_126\n      jumpi\n        /* \"#utility.yul\":1723:1724   */\n      0x00\n        /* \"#utility.yul\":1720:1721   */\n      0x00\n        /* \"#utility.yul\":1713:1725   */\n      revert\n        /* \"#utility.yul\":1664:1727   */\n    tag_126:\n        /* \"#utility.yul\":1611:1733   */\n      pop\n      jump\t// out\n        /* \"#utility.yul\":1739:1878   */\n    tag_87:\n        /* \"#utility.yul\":1785:1790   */\n      0x00\n        /* \"#utility.yul\":1823:1829   */\n      dup2\n        /* \"#utility.yul\":1810:1830   */\n      calldataload\n        /* \"#utility.yul\":1801:1830   */\n      swap1\n      pop\n        /* \"#utility.yul\":1839:1872   */\n      tag_128\n        /* \"#utility.yul\":1866:1871   */\n      dup2\n        /* \"#utility.yul\":1839:1872   */\n      tag_86\n      jump\t// in\n    tag_128:\n        /* \"#utility.yul\":1739:1878   */\n      swap3\n      swap2\n      pop\n      pop\n      jump\t// out\n        /* \"#utility.yul\":1884:2213   */\n    tag_19:\n        /* \"#utility.yul\":1943:1949   */\n      0x00\n        /* \"#utility.yul\":1992:1994   */\n      0x20\n        /* \"#utility.yul\":1980:1989   */\n      dup3\n        /* \"#utility.yul\":1971:1978   */\n      dup5\n        /* \"#utility.yul\":1967:1990   */\n      sub\n        /* \"#utility.yul\":1963:1995   */\n      slt\n        /* \"#utility.yul\":1960:2079   */\n      iszero\n      tag_130\n      jumpi\n        /* \"#utility.yul\":1998:2077   */\n      tag_131\n      tag_78\n      jump\t// in\n    tag_131:\n        /* \"#utility.yul\":1960:2079   */\n    tag_130:\n        /* \"#utility.yul\":2118:2119   */\n      0x00\n        /* \"#utility.yul\":2143:2196   */\n      tag_132\n        /* \"#utility.yul\":2188:2195   */\n      dup5\n        /* \"#utility.yul\":2179:2185   */\n      dup3\n        /* \"#utility.yul\":2168:2177   */\n      dup6\n        /* \"#utility.yul\":2164:2186   */\n      add\n        /* \"#utility.yul\":2143:2196   */\n      tag_87\n      jump\t// in\n    tag_132:\n        /* \"#utility.yul\":2133:2196   */\n      swap2\n      pop\n        /* \"#utility.yul\":2089:2206   */\n      pop\n        /* \"#utility.yul\":1884:2213   */\n      swap3\n      swap2\n      pop\n      pop\n      jump\t// out\n        /* \"#utility.yul\":2219:2337   */\n    tag_88:\n        /* \"#utility.yul\":2306:2330   */\n      tag_134\n        /* \"#utility.yul\":2324:2329   */\n      dup2\n        /* \"#utility.yul\":2306:2330   */\n      tag_80\n      jump\t// in\n    tag_134:\n        /* \"#utility.yul\":2301:2304   */\n      dup3\n        /* \"#utility.yul\":2294:2331   */\n      mstore\n        /* \"#utility.yul\":2219:2337   */\n      pop\n      pop\n      jump\t// out\n        /* \"#utility.yul\":2343:2565   */\n    tag_22:\n        /* \"#utility.yul\":2436:2440   */\n      0x00\n        /* \"#utility.yul\":2474:2476   */\n      0x20\n        /* \"#utility.yul\":2463:2472   */\n      dup3\n        /* \"#utility.yul\":2459:2477   */\n      add\n        /* \"#utility.yul\":2451:2477   */\n      swap1\n      pop\n        /* \"#utility.yul\":2487:2558   */\n      tag_136\n        /* \"#utility.yul\":2555:2556   */\n      0x00\n        /* \"#utility.yul\":2544:2553   */\n      dup4\n        /* \"#utility.yul\":2540:2557   */\n      add\n        /* \"#utility.yul\":2531:2537   */\n      dup5\n        /* \"#utility.yul\":2487:2558   */\n      tag_88\n      jump\t// in\n    tag_136:\n        /* \"#utility.yul\":2343:2565   */\n      swap3\n      swap2\n      pop\n      pop\n      jump\t// out\n        /* \"#utility.yul\":2571:2751   */\n    tag_33:\n        /* \"#utility.yul\":2619:2696   */\n      0x4e487b7100000000000000000000000000000000000000000000000000000000\n        /* \"#utility.yul\":2616:2617   */\n      0x00\n        /* \"#utility.yul\":2609:2697   */\n      mstore\n        /* \"#utility.yul\":2716:2720   */\n      0x32\n        /* \"#utility.yul\":2713:2714   */\n      0x04\n        /* \"#utility.yul\":2706:2721   */\n      mstore\n        /* \"#utility.yul\":2740:2744   */\n      0x24\n        /* \"#utility.yul\":2737:2738   */\n      0x00\n        /* \"#utility.yul\":2730:2745   */\n      revert\n        /* \"#utility.yul\":2757:2937   */\n    tag_37:\n        /* \"#utility.yul\":2805:2882   */\n      0x4e487b7100000000000000000000000000000000000000000000000000000000\n        /* \"#utility.yul\":2802:2803   */\n      0x00\n        /* \"#utility.yul\":2795:2883   */\n      mstore\n        /* \"#utility.yul\":2902:2906   */\n      0x41\n        /* \"#utility.yul\":2899:2900   */\n      0x04\n        /* \"#utility.yul\":2892:2907   */\n      mstore\n        /* \"#utility.yul\":2926:2930   */\n      0x24\n        /* \"#utility.yul\":2923:2924   */\n      0x00\n        /* \"#utility.yul\":2916:2931   */\n      revert\n        /* \"#utility.yul\":2943:3112   */\n    tag_89:\n        /* \"#utility.yul\":3027:3038   */\n      0x00\n        /* \"#utility.yul\":3061:3067   */\n      dup3\n        /* \"#utility.yul\":3056:3059   */\n      dup3\n        /* \"#utility.yul\":3049:3068   */\n      mstore\n        /* \"#utility.yul\":3101:3105   */\n      0x20\n        /* \"#utility.yul\":3096:3099   */\n      dup3\n        /* \"#utility.yul\":3092:3106   */\n      add\n        /* \"#utility.yul\":3077:3106   */\n      swap1\n      pop\n        /* \"#utility.yul\":2943:3112   */\n      swap3\n      swap2\n      pop\n      pop\n      jump\t// out\n        /* \"#utility.yul\":3118:3300   */\n    tag_90:\n        /* \"#utility.yul\":3258:3292   */\n      0x4572726f7220696e2073656e64696e6720746865207472616e73616374696f6e\n        /* \"#utility.yul\":3254:3255   */\n      0x00\n        /* \"#utility.yul\":3246:3252   */\n      dup3\n        /* \"#utility.yul\":3242:3256   */\n      add\n        /* \"#utility.yul\":3235:3293   */\n      mstore\n        /* \"#utility.yul\":3118:3300   */\n      pop\n      jump\t// out\n        /* \"#utility.yul\":3306:3672   */\n    tag_91:\n        /* \"#utility.yul\":3448:3451   */\n      0x00\n        /* \"#utility.yul\":3469:3536   */\n      tag_142\n        /* \"#utility.yul\":3533:3535   */\n      0x20\n        /* \"#utility.yul\":3528:3531   */\n      dup4\n        /* \"#utility.yul\":3469:3536   */\n      tag_89\n      jump\t// in\n    tag_142:\n        /* \"#utility.yul\":3462:3536   */\n      swap2\n      pop\n        /* \"#utility.yul\":3545:3638   */\n      tag_143\n        /* \"#utility.yul\":3634:3637   */\n      dup3\n        /* \"#utility.yul\":3545:3638   */\n      tag_90\n      jump\t// in\n    tag_143:\n        /* \"#utility.yul\":3663:3665   */\n      0x20\n        /* \"#utility.yul\":3658:3661   */\n      dup3\n        /* \"#utility.yul\":3654:3666   */\n      add\n        /* \"#utility.yul\":3647:3666   */\n      swap1\n      pop\n        /* \"#utility.yul\":3306:3672   */\n      swap2\n      swap1\n      pop\n      jump\t// out\n        /* \"#utility.yul\":3678:4097   */\n    tag_46:\n        /* \"#utility.yul\":3844:3848   */\n      0x00\n        /* \"#utility.yul\":3882:3884   */\n      0x20\n        /* \"#utility.yul\":3871:3880   */\n      dup3\n        /* \"#utility.yul\":3867:3885   */\n      add\n        /* \"#utility.yul\":3859:3885   */\n      swap1\n      pop\n        /* \"#utility.yul\":3931:3940   */\n      dup2\n        /* \"#utility.yul\":3925:3929   */\n      dup2\n        /* \"#utility.yul\":3921:3941   */\n      sub\n        /* \"#utility.yul\":3917:3918   */\n      0x00\n        /* \"#utility.yul\":3906:3915   */\n      dup4\n        /* \"#utility.yul\":3902:3919   */\n      add\n        /* \"#utility.yul\":3895:3942   */\n      mstore\n        /* \"#utility.yul\":3959:4090   */\n      tag_145\n        /* \"#utility.yul\":4085:4089   */\n      dup2\n        /* \"#utility.yul\":3959:4090   */\n      tag_91\n      jump\t// in\n    tag_145:\n        /* \"#utility.yul\":3951:4090   */\n      swap1\n      pop\n        /* \"#utility.yul\":3678:4097   */\n      swap2\n      swap1\n      pop\n      jump\t// out\n        /* \"#utility.yul\":4103:4275   */\n    tag_92:\n        /* \"#utility.yul\":4243:4267   */\n      0x4469646e2c742073656e6420656e6f7567682075736400000000000000000000\n        /* \"#utility.yul\":4239:4240   */\n      0x00\n        /* \"#utility.yul\":4231:4237   */\n      dup3\n        /* \"#utility.yul\":4227:4241   */\n      add\n        /* \"#utility.yul\":4220:4268   */\n      mstore\n        /* \"#utility.yul\":4103:4275   */\n      pop\n      jump\t// out\n        /* \"#utility.yul\":4281:4647   */\n    tag_93:\n        /* \"#utility.yul\":4423:4426   */\n      0x00\n        /* \"#utility.yul\":4444:4511   */\n      tag_148\n        /* \"#utility.yul\":4508:4510   */\n      0x16\n        /* \"#utility.yul\":4503:4506   */\n      dup4\n        /* \"#utility.yul\":4444:4511   */\n      tag_89\n      jump\t// in\n    tag_148:\n        /* \"#utility.yul\":4437:4511   */\n      swap2\n      pop\n        /* \"#utility.yul\":4520:4613   */\n      tag_149\n        /* \"#utility.yul\":4609:4612   */\n      dup3\n        /* \"#utility.yul\":4520:4613   */\n      tag_92\n      jump\t// in\n    tag_149:\n        /* \"#utility.yul\":4638:4640   */\n      0x20\n        /* \"#utility.yul\":4633:4636   */\n      dup3\n        /* \"#utility.yul\":4629:4641   */\n      add\n        /* \"#utility.yul\":4622:4641   */\n      swap1\n      pop\n        /* \"#utility.yul\":4281:4647   */\n      swap2\n      swap1\n      pop\n      jump\t// out\n        /* \"#utility.yul\":4653:5072   */\n    tag_52:\n        /* \"#utility.yul\":4819:4823   */\n      0x00\n        /* \"#utility.yul\":4857:4859   */\n      0x20\n        /* \"#utility.yul\":4846:4855   */\n      dup3\n        /* \"#utility.yul\":4842:4860   */\n      add\n        /* \"#utility.yul\":4834:4860   */\n      swap1\n      pop\n        /* \"#utility.yul\":4906:4915   */\n      dup2\n        /* \"#utility.yul\":4900:4904   */\n      dup2\n        /* \"#utility.yul\":4896:4916   */\n      sub\n        /* \"#utility.yul\":4892:4893   */\n      0x00\n        /* \"#utility.yul\":4881:4890   */\n      dup4\n        /* \"#utility.yul\":4877:4894   */\n      add\n        /* \"#utility.yul\":4870:4917   */\n      mstore\n        /* \"#utility.yul\":4934:5065   */\n      tag_151\n        /* \"#utility.yul\":5060:5064   */\n      dup2\n        /* \"#utility.yul\":4934:5065   */\n      tag_93\n      jump\t// in\n    tag_151:\n        /* \"#utility.yul\":4926:5065   */\n      swap1\n      pop\n        /* \"#utility.yul\":4653:5072   */\n      swap2\n      swap1\n      pop\n      jump\t// out\n        /* \"#utility.yul\":5078:5258   */\n    tag_94:\n        /* \"#utility.yul\":5126:5203   */\n      0x4e487b7100000000000000000000000000000000000000000000000000000000\n        /* \"#utility.yul\":5123:5124   */\n      0x00\n        /* \"#utility.yul\":5116:5204   */\n      mstore\n        /* \"#utility.yul\":5223:5227   */\n      0x11\n        /* \"#utility.yul\":5220:5221   */\n      0x04\n        /* \"#utility.yul\":5213:5228   */\n      mstore\n        /* \"#utility.yul\":5247:5251   */\n      0x24\n        /* \"#utility.yul\":5244:5245   */\n      0x00\n        /* \"#utility.yul\":5237:5252   */\n      revert\n        /* \"#utility.yul\":5264:5455   */\n    tag_55:\n        /* \"#utility.yul\":5304:5307   */\n      0x00\n        /* \"#utility.yul\":5323:5343   */\n      tag_154\n        /* \"#utility.yul\":5341:5342   */\n      dup3\n        /* \"#utility.yul\":5323:5343   */\n      tag_80\n      jump\t// in\n    tag_154:\n        /* \"#utility.yul\":5318:5343   */\n      swap2\n      pop\n        /* \"#utility.yul\":5357:5377   */\n      tag_155\n        /* \"#utility.yul\":5375:5376   */\n      dup4\n        /* \"#utility.yul\":5357:5377   */\n      tag_80\n      jump\t// in\n    tag_155:\n        /* \"#utility.yul\":5352:5377   */\n      swap3\n      pop\n        /* \"#utility.yul\":5400:5401   */\n      dup3\n        /* \"#utility.yul\":5397:5398   */\n      dup3\n        /* \"#utility.yul\":5393:5402   */\n      add\n        /* \"#utility.yul\":5386:5402   */\n      swap1\n      pop\n        /* \"#utility.yul\":5421:5424   */\n      dup1\n        /* \"#utility.yul\":5418:5419   */\n      dup3\n        /* \"#utility.yul\":5415:5425   */\n      gt\n        /* \"#utility.yul\":5412:5448   */\n      iszero\n      tag_156\n      jumpi\n        /* \"#utility.yul\":5428:5446   */\n      tag_157\n      tag_94\n      jump\t// in\n    tag_157:\n        /* \"#utility.yul\":5412:5448   */\n    tag_156:\n        /* \"#utility.yul\":5264:5455   */\n      swap3\n      swap2\n      pop\n      pop\n      jump\t// out\n        /* \"#utility.yul\":5461:5871   */\n    tag_60:\n        /* \"#utility.yul\":5501:5508   */\n      0x00\n        /* \"#utility.yul\":5524:5544   */\n      tag_159\n        /* \"#utility.yul\":5542:5543   */\n      dup3\n        /* \"#utility.yul\":5524:5544   */\n      tag_80\n      jump\t// in\n    tag_159:\n        /* \"#utility.yul\":5519:5544   */\n      swap2\n      pop\n        /* \"#utility.yul\":5558:5578   */\n      tag_160\n        /* \"#utility.yul\":5576:5577   */\n      dup4\n        /* \"#utility.yul\":5558:5578   */\n      tag_80\n      jump\t// in\n    tag_160:\n        /* \"#utility.yul\":5553:5578   */\n      swap3\n      pop\n        /* \"#utility.yul\":5613:5614   */\n      dup3\n        /* \"#utility.yul\":5610:5611   */\n      dup3\n        /* \"#utility.yul\":5606:5615   */\n      mul\n        /* \"#utility.yul\":5635:5665   */\n      tag_161\n        /* \"#utility.yul\":5653:5664   */\n      dup2\n        /* \"#utility.yul\":5635:5665   */\n      tag_80\n      jump\t// in\n    tag_161:\n        /* \"#utility.yul\":5624:5665   */\n      swap2\n      pop\n        /* \"#utility.yul\":5814:5815   */\n      dup3\n        /* \"#utility.yul\":5805:5812   */\n      dup3\n        /* \"#utility.yul\":5801:5816   */\n      div\n        /* \"#utility.yul\":5798:5799   */\n      dup5\n        /* \"#utility.yul\":5795:5817   */\n      eq\n        /* \"#utility.yul\":5775:5776   */\n      dup4\n        /* \"#utility.yul\":5768:5777   */\n      iszero\n        /* \"#utility.yul\":5748:5831   */\n      or\n        /* \"#utility.yul\":5725:5864   */\n      tag_162\n      jumpi\n        /* \"#utility.yul\":5844:5862   */\n      tag_163\n      tag_94\n      jump\t// in\n    tag_163:\n        /* \"#utility.yul\":5725:5864   */\n    tag_162:\n        /* \"#utility.yul\":5509:5871   */\n      pop\n        /* \"#utility.yul\":5461:5871   */\n      swap3\n      swap2\n      pop\n      pop\n      jump\t// out\n        /* \"#utility.yul\":5877:6057   */\n    tag_95:\n        /* \"#utility.yul\":5925:6002   */\n      0x4e487b7100000000000000000000000000000000000000000000000000000000\n        /* \"#utility.yul\":5922:5923   */\n      0x00\n        /* \"#utility.yul\":5915:6003   */\n      mstore\n        /* \"#utility.yul\":6022:6026   */\n      0x12\n        /* \"#utility.yul\":6019:6020   */\n      0x04\n        /* \"#utility.yul\":6012:6027   */\n      mstore\n        /* \"#utility.yul\":6046:6050   */\n      0x24\n        /* \"#utility.yul\":6043:6044   */\n      0x00\n        /* \"#utility.yul\":6036:6051   */\n      revert\n        /* \"#utility.yul\":6063:6248   */\n    tag_62:\n        /* \"#utility.yul\":6103:6104   */\n      0x00\n        /* \"#utility.yul\":6120:6140   */\n      tag_166\n        /* \"#utility.yul\":6138:6139   */\n      dup3\n        /* \"#utility.yul\":6120:6140   */\n      tag_80\n      jump\t// in\n    tag_166:\n        /* \"#utility.yul\":6115:6140   */\n      swap2\n      pop\n        /* \"#utility.yul\":6154:6174   */\n      tag_167\n        /* \"#utility.yul\":6172:6173   */\n      dup4\n        /* \"#utility.yul\":6154:6174   */\n      tag_80\n      jump\t// in\n    tag_167:\n        /* \"#utility.yul\":6149:6174   */\n      swap3\n      pop\n        /* \"#utility.yul\":6193:6194   */\n      dup3\n        /* \"#utility.yul\":6183:6218   */\n      tag_168\n      jumpi\n        /* \"#utility.yul\":6198:6216   */\n      tag_169\n      tag_95\n      jump\t// in\n    tag_169:\n        /* \"#utility.yul\":6183:6218   */\n    tag_168:\n        /* \"#utility.yul\":6240:6241   */\n      dup3\n        /* \"#utility.yul\":6237:6238   */\n      dup3\n        /* \"#utility.yul\":6233:6242   */\n      div\n        /* \"#utility.yul\":6228:6242   */\n      swap1\n      pop\n        /* \"#utility.yul\":6063:6248   */\n      swap3\n      swap2\n      pop\n      pop\n      jump\t// out\n        /* \"#utility.yul\":6254:6359   */\n    tag_96:\n        /* \"#utility.yul\":6290:6297   */\n      0x00\n        /* \"#utility.yul\":6330:6352   */\n      0xffffffffffffffffffff\n        /* \"#utility.yul\":6323:6328   */\n      dup3\n        /* \"#utility.yul\":6319:6353   */\n      and\n        /* \"#utility.yul\":6308:6353   */\n      swap1\n      pop\n        /* \"#utility.yul\":6254:6359   */\n      swap2\n      swap1\n      pop\n      jump\t// out\n        /* \"#utility.yul\":6365:6485   */\n    tag_97:\n        /* \"#utility.yul\":6437:6460   */\n      tag_172\n        /* \"#utility.yul\":6454:6459   */\n      dup2\n        /* \"#utility.yul\":6437:6460   */\n      tag_96\n      jump\t// in\n    tag_172:\n        /* \"#utility.yul\":6430:6435   */\n      dup2\n        /* \"#utility.yul\":6427:6461   */\n      eq\n        /* \"#utility.yul\":6417:6479   */\n      tag_173\n      jumpi\n        /* \"#utility.yul\":6475:6476   */\n      0x00\n        /* \"#utility.yul\":6472:6473   */\n      0x00\n        /* \"#utility.yul\":6465:6477   */\n      revert\n        /* \"#utility.yul\":6417:6479   */\n    tag_173:\n        /* \"#utility.yul\":6365:6485   */\n      pop\n      jump\t// out\n        /* \"#utility.yul\":6491:6632   */\n    tag_98:\n        /* \"#utility.yul\":6547:6552   */\n      0x00\n        /* \"#utility.yul\":6578:6584   */\n      dup2\n        /* \"#utility.yul\":6572:6585   */\n      mload\n        /* \"#utility.yul\":6563:6585   */\n      swap1\n      pop\n        /* \"#utility.yul\":6594:6626   */\n      tag_175\n        /* \"#utility.yul\":6620:6625   */\n      dup2\n        /* \"#utility.yul\":6594:6626   */\n      tag_97\n      jump\t// in\n    tag_175:\n        /* \"#utility.yul\":6491:6632   */\n      swap3\n      swap2\n      pop\n      pop\n      jump\t// out\n        /* \"#utility.yul\":6638:6714   */\n    tag_99:\n        /* \"#utility.yul\":6674:6681   */\n      0x00\n        /* \"#utility.yul\":6703:6708   */\n      dup2\n        /* \"#utility.yul\":6692:6708   */\n      swap1\n      pop\n        /* \"#utility.yul\":6638:6714   */\n      swap2\n      swap1\n      pop\n      jump\t// out\n        /* \"#utility.yul\":6720:6840   */\n    tag_100:\n        /* \"#utility.yul\":6792:6815   */\n      tag_178\n        /* \"#utility.yul\":6809:6814   */\n      dup2\n        /* \"#utility.yul\":6792:6815   */\n      tag_99\n      jump\t// in\n    tag_178:\n        /* \"#utility.yul\":6785:6790   */\n      dup2\n        /* \"#utility.yul\":6782:6816   */\n      eq\n        /* \"#utility.yul\":6772:6834   */\n      tag_179\n      jumpi\n        /* \"#utility.yul\":6830:6831   */\n      0x00\n        /* \"#utility.yul\":6827:6828   */\n      0x00\n        /* \"#utility.yul\":6820:6832   */\n      revert\n        /* \"#utility.yul\":6772:6834   */\n    tag_179:\n        /* \"#utility.yul\":6720:6840   */\n      pop\n      jump\t// out\n        /* \"#utility.yul\":6846:6987   */\n    tag_101:\n        /* \"#utility.yul\":6902:6907   */\n      0x00\n        /* \"#utility.yul\":6933:6939   */\n      dup2\n        /* \"#utility.yul\":6927:6940   */\n      mload\n        /* \"#utility.yul\":6918:6940   */\n      swap1\n      pop\n        /* \"#utility.yul\":6949:6981   */\n      tag_181\n        /* \"#utility.yul\":6975:6980   */\n      dup2\n        /* \"#utility.yul\":6949:6981   */\n      tag_100\n      jump\t// in\n    tag_181:\n        /* \"#utility.yul\":6846:6987   */\n      swap3\n      swap2\n      pop\n      pop\n      jump\t// out\n        /* \"#utility.yul\":6993:7136   */\n    tag_102:\n        /* \"#utility.yul\":7050:7055   */\n      0x00\n        /* \"#utility.yul\":7081:7087   */\n      dup2\n        /* \"#utility.yul\":7075:7088   */\n      mload\n        /* \"#utility.yul\":7066:7088   */\n      swap1\n      pop\n        /* \"#utility.yul\":7097:7130   */\n      tag_183\n        /* \"#utility.yul\":7124:7129   */\n      dup2\n        /* \"#utility.yul\":7097:7130   */\n      tag_81\n      jump\t// in\n    tag_183:\n        /* \"#utility.yul\":6993:7136   */\n      swap3\n      swap2\n      pop\n      pop\n      jump\t// out\n        /* \"#utility.yul\":7142:8113   */\n    tag_67:\n        /* \"#utility.yul\":7245:7251   */\n      0x00\n        /* \"#utility.yul\":7253:7259   */\n      0x00\n        /* \"#utility.yul\":7261:7267   */\n      0x00\n        /* \"#utility.yul\":7269:7275   */\n      0x00\n        /* \"#utility.yul\":7277:7283   */\n      0x00\n        /* \"#utility.yul\":7326:7329   */\n      0xa0\n        /* \"#utility.yul\":7314:7323   */\n      dup7\n        /* \"#utility.yul\":7305:7312   */\n      dup9\n        /* \"#utility.yul\":7301:7324   */\n      sub\n        /* \"#utility.yul\":7297:7330   */\n      slt\n        /* \"#utility.yul\":7294:7414   */\n      iszero\n      tag_185\n      jumpi\n        /* \"#utility.yul\":7333:7412   */\n      tag_186\n      tag_78\n      jump\t// in\n    tag_186:\n        /* \"#utility.yul\":7294:7414   */\n    tag_185:\n        /* \"#utility.yul\":7453:7454   */\n      0x00\n        /* \"#utility.yul\":7478:7541   */\n      tag_187\n        /* \"#utility.yul\":7533:7540   */\n      dup9\n        /* \"#utility.yul\":7524:7530   */\n      dup3\n        /* \"#utility.yul\":7513:7522   */\n      dup10\n        /* \"#utility.yul\":7509:7531   */\n      add\n        /* \"#utility.yul\":7478:7541   */\n      tag_98\n      jump\t// in\n    tag_187:\n        /* \"#utility.yul\":7468:7541   */\n      swap6\n      pop\n        /* \"#utility.yul\":7424:7551   */\n      pop\n        /* \"#utility.yul\":7590:7592   */\n      0x20\n        /* \"#utility.yul\":7616:7679   */\n      tag_188\n        /* \"#utility.yul\":7671:7678   */\n      dup9\n        /* \"#utility.yul\":7662:7668   */\n      dup3\n        /* \"#utility.yul\":7651:7660   */\n      dup10\n        /* \"#utility.yul\":7647:7669   */\n      add\n        /* \"#utility.yul\":7616:7679   */\n      tag_101\n      jump\t// in\n    tag_188:\n        /* \"#utility.yul\":7606:7679   */\n      swap5\n      pop\n        /* \"#utility.yul\":7561:7689   */\n      pop\n        /* \"#utility.yul\":7728:7730   */\n      0x40\n        /* \"#utility.yul\":7754:7818   */\n      tag_189\n        /* \"#utility.yul\":7810:7817   */\n      dup9\n        /* \"#utility.yul\":7801:7807   */\n      dup3\n        /* \"#utility.yul\":7790:7799   */\n      dup10\n        /* \"#utility.yul\":7786:7808   */\n      add\n        /* \"#utility.yul\":7754:7818   */\n      tag_102\n      jump\t// in\n    tag_189:\n        /* \"#utility.yul\":7744:7818   */\n      swap4\n      pop\n        /* \"#utility.yul\":7699:7828   */\n      pop\n        /* \"#utility.yul\":7867:7869   */\n      0x60\n        /* \"#utility.yul\":7893:7957   */\n      tag_190\n        /* \"#utility.yul\":7949:7956   */\n      dup9\n        /* \"#utility.yul\":7940:7946   */\n      dup3\n        /* \"#utility.yul\":7929:7938   */\n      dup10\n        /* \"#utility.yul\":7925:7947   */\n      add\n        /* \"#utility.yul\":7893:7957   */\n      tag_102\n      jump\t// in\n    tag_190:\n        /* \"#utility.yul\":7883:7957   */\n      swap3\n      pop\n        /* \"#utility.yul\":7838:7967   */\n      pop\n        /* \"#utility.yul\":8006:8009   */\n      0x80\n        /* \"#utility.yul\":8033:8096   */\n      tag_191\n        /* \"#utility.yul\":8088:8095   */\n      dup9\n        /* \"#utility.yul\":8079:8085   */\n      dup3\n        /* \"#utility.yul\":8068:8077   */\n      dup10\n        /* \"#utility.yul\":8064:8086   */\n      add\n        /* \"#utility.yul\":8033:8096   */\n      tag_98\n      jump\t// in\n    tag_191:\n        /* \"#utility.yul\":8023:8096   */\n      swap2\n      pop\n        /* \"#utility.yul\":7977:8106   */\n      pop\n        /* \"#utility.yul\":7142:8113   */\n      swap3\n      swap6\n      pop\n      swap3\n      swap6\n      swap1\n      swap4\n      pop\n      jump\t// out\n        /* \"#utility.yul\":8119:8675   */\n    tag_69:\n        /* \"#utility.yul\":8158:8165   */\n      0x00\n        /* \"#utility.yul\":8181:8200   */\n      tag_193\n        /* \"#utility.yul\":8198:8199   */\n      dup3\n        /* \"#utility.yul\":8181:8200   */\n      tag_99\n      jump\t// in\n    tag_193:\n        /* \"#utility.yul\":8176:8200   */\n      swap2\n      pop\n        /* \"#utility.yul\":8214:8233   */\n      tag_194\n        /* \"#utility.yul\":8231:8232   */\n      dup4\n        /* \"#utility.yul\":8214:8233   */\n      tag_99\n      jump\t// in\n    tag_194:\n        /* \"#utility.yul\":8209:8233   */\n      swap3\n      pop\n        /* \"#utility.yul\":8268:8269   */\n      dup3\n        /* \"#utility.yul\":8265:8266   */\n      dup3\n        /* \"#utility.yul\":8261:8270   */\n      mul\n        /* \"#utility.yul\":8290:8319   */\n      tag_195\n        /* \"#utility.yul\":8307:8318   */\n      dup2\n        /* \"#utility.yul\":8290:8319   */\n      tag_99\n      jump\t// in\n    tag_195:\n        /* \"#utility.yul\":8279:8319   */\n      swap2\n      pop\n        /* \"#utility.yul\":8377:8443   */\n      0x8000000000000000000000000000000000000000000000000000000000000000\n        /* \"#utility.yul\":8374:8375   */\n      dup5\n        /* \"#utility.yul\":8371:8444   */\n      eq\n        /* \"#utility.yul\":8367:8368   */\n      0x00\n        /* \"#utility.yul\":8364:8365   */\n      dup5\n        /* \"#utility.yul\":8360:8369   */\n      slt\n        /* \"#utility.yul\":8356:8445   */\n      and\n        /* \"#utility.yul\":8353:8468   */\n      iszero\n      tag_196\n      jumpi\n        /* \"#utility.yul\":8448:8466   */\n      tag_197\n      tag_94\n      jump\t// in\n    tag_197:\n        /* \"#utility.yul\":8353:8468   */\n    tag_196:\n        /* \"#utility.yul\":8618:8619   */\n      dup3\n        /* \"#utility.yul\":8609:8616   */\n      dup3\n        /* \"#utility.yul\":8604:8620   */\n      sdiv\n        /* \"#utility.yul\":8601:8602   */\n      dup5\n        /* \"#utility.yul\":8598:8621   */\n      eq\n        /* \"#utility.yul\":8578:8579   */\n      dup4\n        /* \"#utility.yul\":8571:8580   */\n      iszero\n        /* \"#utility.yul\":8551:8635   */\n      or\n        /* \"#utility.yul\":8528:8668   */\n      tag_198\n      jumpi\n        /* \"#utility.yul\":8648:8666   */\n      tag_199\n      tag_94\n      jump\t// in\n    tag_199:\n        /* \"#utility.yul\":8528:8668   */\n    tag_198:\n        /* \"#utility.yul\":8166:8675   */\n      pop\n        /* \"#utility.yul\":8119:8675   */\n      swap3\n      swap2\n      pop\n      pop\n      jump\t// out\n\n    auxdata: 0xa2646970667358221220bacf7d4b174b4d2649ba28c97a903538938a96aea945289ea5b6054d9037d49a64736f6c634300081e0033\n}\n",
				"bytecode": {
					"linkReferences": {},
					"object": "6080604052674563918244f400005f553480156019575f5ffd5b50610ab8806100275f395ff3fe60806040526004361061003e575f3560e01c80631f2c9238146100425780633ccfd60b1461007e578063768a03bc14610094578063b60d4288146100d0575b5f5ffd5b34801561004d575f5ffd5b50610068600480360381019061006391906105d7565b6100da565b6040516100759190610641565b60405180910390f35b348015610089575f5ffd5b50610092610115565b005b34801561009f575f5ffd5b506100ba60048036038101906100b59190610684565b6102d4565b6040516100c791906106be565b60405180910390f35b6100d86102e9565b005b600181815481106100e9575f80fd5b905f5260205f20015f915054906101000a900473ffffffffffffffffffffffffffffffffffffffff1681565b5f5f90505b6001805490508110156101b6575f6001828154811061013c5761013b6106d7565b5b905f5260205f20015f9054906101000a900473ffffffffffffffffffffffffffffffffffffffff1690505f60025f8373ffffffffffffffffffffffffffffffffffffffff1673ffffffffffffffffffffffffffffffffffffffff1681526020019081526020015f208190555050808060010191505061011a565b505f67ffffffffffffffff8111156101d1576101d0610704565b5b6040519080825280602002602001820160405280156101ff5781602001602082028036833780820191505090505b50600190805190602001906102159291906104fe565b503373ffffffffffffffffffffffffffffffffffffffff166108fc4790811502906040515f60405180830381858888f19350505050158015610259573d5f5f3e3d5ffd5b505f3373ffffffffffffffffffffffffffffffffffffffff166108fc4790811502906040515f60405180830381858888f193505050509050806102d1576040517f08c379a00000000000000000000000000000000000000000000000000000000081526004016102c89061078b565b60405180910390fd5b50565b6002602052805f5260405f205f915090505481565b5f546102f434610421565b1015610335576040517f08c379a000000000000000000000000000000000000000000000000000000000815260040161032c906107f3565b60405180910390fd5b600133908060018154018082558091505060019003905f5260205f20015f9091909190916101000a81548173ffffffffffffffffffffffffffffffffffffffff021916908373ffffffffffffffffffffffffffffffffffffffff1602179055503460025f3373ffffffffffffffffffffffffffffffffffffffff1673ffffffffffffffffffffffffffffffffffffffff1681526020019081526020015f20546103de919061083e565b60025f3373ffffffffffffffffffffffffffffffffffffffff1673ffffffffffffffffffffffffffffffffffffffff1681526020019081526020015f2081905550565b5f5f61042b610459565b90505f670de0b6b3a764000084836104439190610871565b61044d91906108df565b90508092505050919050565b5f5f73694aa1769357215de4fac081bf1f309adc32530690505f8173ffffffffffffffffffffffffffffffffffffffff1663feaf968c6040518163ffffffff1660e01b815260040160a060405180830381865afa1580156104bc573d5f5f3e3d5ffd5b505050506040513d601f19601f820116820180604052508101906104e09190610995565b5050509150506402540be400816104f79190610a0c565b9250505090565b828054828255905f5260205f20908101928215610574579160200282015b82811115610573578251825f6101000a81548173ffffffffffffffffffffffffffffffffffffffff021916908373ffffffffffffffffffffffffffffffffffffffff1602179055509160200191906001019061051c565b5b5090506105819190610585565b5090565b5b8082111561059c575f815f905550600101610586565b5090565b5f5ffd5b5f819050919050565b6105b6816105a4565b81146105c0575f5ffd5b50565b5f813590506105d1816105ad565b92915050565b5f602082840312156105ec576105eb6105a0565b5b5f6105f9848285016105c3565b91505092915050565b5f73ffffffffffffffffffffffffffffffffffffffff82169050919050565b5f61062b82610602565b9050919050565b61063b81610621565b82525050565b5f6020820190506106545f830184610632565b92915050565b61066381610621565b811461066d575f5ffd5b50565b5f8135905061067e8161065a565b92915050565b5f60208284031215610699576106986105a0565b5b5f6106a684828501610670565b91505092915050565b6106b8816105a4565b82525050565b5f6020820190506106d15f8301846106af565b92915050565b7f4e487b71000000000000000000000000000000000000000000000000000000005f52603260045260245ffd5b7f4e487b71000000000000000000000000000000000000000000000000000000005f52604160045260245ffd5b5f82825260208201905092915050565b7f4572726f7220696e2073656e64696e6720746865207472616e73616374696f6e5f82015250565b5f610775602083610731565b915061078082610741565b602082019050919050565b5f6020820190508181035f8301526107a281610769565b9050919050565b7f4469646e2c742073656e6420656e6f75676820757364000000000000000000005f82015250565b5f6107dd601683610731565b91506107e8826107a9565b602082019050919050565b5f6020820190508181035f83015261080a816107d1565b9050919050565b7f4e487b71000000000000000000000000000000000000000000000000000000005f52601160045260245ffd5b5f610848826105a4565b9150610853836105a4565b925082820190508082111561086b5761086a610811565b5b92915050565b5f61087b826105a4565b9150610886836105a4565b9250828202610894816105a4565b915082820484148315176108ab576108aa610811565b5b5092915050565b7f4e487b71000000000000000000000000000000000000000000000000000000005f52601260045260245ffd5b5f6108e9826105a4565b91506108f4836105a4565b925082610904576109036108b2565b5b828204905092915050565b5f69ffffffffffffffffffff82169050919050565b61092d8161090f565b8114610937575f5ffd5b50565b5f8151905061094881610924565b92915050565b5f819050919050565b6109608161094e565b811461096a575f5ffd5b50565b5f8151905061097b81610957565b92915050565b5f8151905061098f816105ad565b92915050565b5f5f5f5f5f60a086880312156109ae576109ad6105a0565b5b5f6109bb8882890161093a565b95505060206109cc8882890161096d565b94505060406109dd88828901610981565b93505060606109ee88828901610981565b92505060806109ff8882890161093a565b9150509295509295909350565b5f610a168261094e565b9150610a218361094e565b9250828202610a2f8161094e565b91507f800000000000000000000000000000000000000000000000000000000000000084145f84121615610a6657610a65610811565b5b8282058414831517610a7b57610a7a610811565b5b509291505056fea2646970667358221220bacf7d4b174b4d2649ba28c97a903538938a96aea945289ea5b6054d9037d49a64736f6c634300081e0033",
					"opcodes": "PUSH1 0x80 PUSH1 0x40 MSTORE PUSH8 0x4563918244F40000 PUSH0 SSTORE CALLVALUE DUP1 ISZERO PUSH1 0x19 JUMPI PUSH0 PUSH0 REVERT JUMPDEST POP PUSH2 0xAB8 DUP1 PUSH2 0x27 PUSH0 CODECOPY PUSH0 RETURN INVALID PUSH1 0x80 PUSH1 0x40 MSTORE PUSH1 0x4 CALLDATASIZE LT PUSH2 0x3E JUMPI PUSH0 CALLDATALOAD PUSH1 0xE0 SHR DUP1 PUSH4 0x1F2C9238 EQ PUSH2 0x42 JUMPI DUP1 PUSH4 0x3CCFD60B EQ PUSH2 0x7E JUMPI DUP1 PUSH4 0x768A03BC EQ PUSH2 0x94 JUMPI DUP1 PUSH4 0xB60D4288 EQ PUSH2 0xD0 JUMPI JUMPDEST PUSH0 PUSH0 REVERT JUMPDEST CALLVALUE DUP1 ISZERO PUSH2 0x4D JUMPI PUSH0 PUSH0 REVERT JUMPDEST POP PUSH2 0x68 PUSH1 0x4 DUP1 CALLDATASIZE SUB DUP2 ADD SWAP1 PUSH2 0x63 SWAP2 SWAP1 PUSH2 0x5D7 JUMP JUMPDEST PUSH2 0xDA JUMP JUMPDEST PUSH1 0x40 MLOAD PUSH2 0x75 SWAP2 SWAP1 PUSH2 0x641 JUMP JUMPDEST PUSH1 0x40 MLOAD DUP1 SWAP2 SUB SWAP1 RETURN JUMPDEST CALLVALUE DUP1 ISZERO PUSH2 0x89 JUMPI PUSH0 PUSH0 REVERT JUMPDEST POP PUSH2 0x92 PUSH2 0x115 JUMP JUMPDEST STOP JUMPDEST CALLVALUE DUP1 ISZERO PUSH2 0x9F JUMPI PUSH0 PUSH0 REVERT JUMPDEST POP PUSH2 0xBA PUSH1 0x4 DUP1 CALLDATASIZE SUB DUP2 ADD SWAP1 PUSH2 0xB5 SWAP2 SWAP1 PUSH2 0x684 JUMP JUMPDEST PUSH2 0x2D4 JUMP JUMPDEST PUSH1 0x40 MLOAD PUSH2 0xC7 SWAP2 SWAP1 PUSH2 0x6BE JUMP JUMPDEST PUSH1 0x40 MLOAD DUP1 SWAP2 SUB SWAP1 RETURN JUMPDEST PUSH2 0xD8 PUSH2 0x2E9 JUMP JUMPDEST STOP JUMPDEST PUSH1 0x1 DUP2 DUP2 SLOAD DUP2 LT PUSH2 0xE9 JUMPI PUSH0 DUP1 REVERT JUMPDEST SWAP1 PUSH0 MSTORE PUSH1 0x20 PUSH0 KECCAK256 ADD PUSH0 SWAP2 POP SLOAD SWAP1 PUSH2 0x100 EXP SWAP1 DIV PUSH20 0xFFFFFFFFFFFFFFFFFFFFFFFFFFFFFFFFFFFFFFFF AND DUP2 JUMP JUMPDEST PUSH0 PUSH0 SWAP1 POP JUMPDEST PUSH1 0x1 DUP1 SLOAD SWAP1 POP DUP2 LT ISZERO PUSH2 0x1B6 JUMPI PUSH0 PUSH1 0x1 DUP3 DUP2 SLOAD DUP2 LT PUSH2 0x13C JUMPI PUSH2 0x13B PUSH2 0x6D7 JUMP JUMPDEST JUMPDEST SWAP1 PUSH0 MSTORE PUSH1 0x20 PUSH0 KECCAK256 ADD PUSH0 SWAP1 SLOAD SWAP1 PUSH2 0x100 EXP SWAP1 DIV PUSH20 0xFFFFFFFFFFFFFFFFFFFFFFFFFFFFFFFFFFFFFFFF AND SWAP1 POP PUSH0 PUSH1 0x2 PUSH0 DUP4 PUSH20 0xFFFFFFFFFFFFFFFFFFFFFFFFFFFFFFFFFFFFFFFF AND PUSH20 0xFFFFFFFFFFFFFFFFFFFFFFFFFFFFFFFFFFFFFFFF AND DUP2 MSTORE PUSH1 0x20 ADD SWAP1 DUP2 MSTORE PUSH1 0x20 ADD PUSH0 KECCAK256 DUP2 SWAP1 SSTORE POP POP DUP1 DUP1 PUSH1 0x1 ADD SWAP2 POP POP PUSH2 0x11A JUMP JUMPDEST POP PUSH0 PUSH8 0xFFFFFFFFFFFFFFFF DUP2 GT ISZERO PUSH2 0x1D1 JUMPI PUSH2 0x1D0 PUSH2 0x704 JUMP JUMPDEST JUMPDEST PUSH1 0x40 MLOAD SWAP1 DUP1 DUP3 MSTORE DUP1 PUSH1 0x20 MUL PUSH1 0x20 ADD DUP3 ADD PUSH1 0x40 MSTORE DUP1 ISZERO PUSH2 0x1FF JUMPI DUP2 PUSH1 0x20 ADD PUSH1 0x20 DUP3 MUL DUP1 CALLDATASIZE DUP4 CALLDATACOPY DUP1 DUP3 ADD SWAP2 POP POP SWAP1 POP JUMPDEST POP PUSH1 0x1 SWAP1 DUP1 MLOAD SWAP1 PUSH1 0x20 ADD SWAP1 PUSH2 0x215 SWAP3 SWAP2 SWAP1 PUSH2 0x4FE JUMP JUMPDEST POP CALLER PUSH20 0xFFFFFFFFFFFFFFFFFFFFFFFFFFFFFFFFFFFFFFFF AND PUSH2 0x8FC SELFBALANCE SWAP1 DUP2 ISZERO MUL SWAP1 PUSH1 0x40 MLOAD PUSH0 PUSH1 0x40 MLOAD DUP1 DUP4 SUB DUP2 DUP6 DUP9 DUP9 CALL SWAP4 POP POP POP POP ISZERO DUP1 ISZERO PUSH2 0x259 JUMPI RETURNDATASIZE PUSH0 PUSH0 RETURNDATACOPY RETURNDATASIZE PUSH0 REVERT JUMPDEST POP PUSH0 CALLER PUSH20 0xFFFFFFFFFFFFFFFFFFFFFFFFFFFFFFFFFFFFFFFF AND PUSH2 0x8FC SELFBALANCE SWAP1 DUP2 ISZERO MUL SWAP1 PUSH1 0x40 MLOAD PUSH0 PUSH1 0x40 MLOAD DUP1 DUP4 SUB DUP2 DUP6 DUP9 DUP9 CALL SWAP4 POP POP POP POP SWAP1 POP DUP1 PUSH2 0x2D1 JUMPI PUSH1 0x40 MLOAD PUSH32 0x8C379A000000000000000000000000000000000000000000000000000000000 DUP2 MSTORE PUSH1 0x4 ADD PUSH2 0x2C8 SWAP1 PUSH2 0x78B JUMP JUMPDEST PUSH1 0x40 MLOAD DUP1 SWAP2 SUB SWAP1 REVERT JUMPDEST POP JUMP JUMPDEST PUSH1 0x2 PUSH1 0x20 MSTORE DUP1 PUSH0 MSTORE PUSH1 0x40 PUSH0 KECCAK256 PUSH0 SWAP2 POP SWAP1 POP SLOAD DUP2 JUMP JUMPDEST PUSH0 SLOAD PUSH2 0x2F4 CALLVALUE PUSH2 0x421 JUMP JUMPDEST LT ISZERO PUSH2 0x335 JUMPI PUSH1 0x40 MLOAD PUSH32 0x8C379A000000000000000000000000000000000000000000000000000000000 DUP2 MSTORE PUSH1 0x4 ADD PUSH2 0x32C SWAP1 PUSH2 0x7F3 JUMP JUMPDEST PUSH1 0x40 MLOAD DUP1 SWAP2 SUB SWAP1 REVERT JUMPDEST PUSH1 0x1 CALLER SWAP1 DUP1 PUSH1 0x1 DUP2 SLOAD ADD DUP1 DUP3 SSTORE DUP1 SWAP2 POP POP PUSH1 0x1 SWAP1 SUB SWAP1 PUSH0 MSTORE PUSH1 0x20 PUSH0 KECCAK256 ADD PUSH0 SWAP1 SWAP2 SWAP1 SWAP2 SWAP1 SWAP2 PUSH2 0x100 EXP DUP2 SLOAD DUP2 PUSH20 0xFFFFFFFFFFFFFFFFFFFFFFFFFFFFFFFFFFFFFFFF MUL NOT AND SWAP1 DUP4 PUSH20 0xFFFFFFFFFFFFFFFFFFFFFFFFFFFFFFFFFFFFFFFF AND MUL OR SWAP1 SSTORE POP CALLVALUE PUSH1 0x2 PUSH0 CALLER PUSH20 0xFFFFFFFFFFFFFFFFFFFFFFFFFFFFFFFFFFFFFFFF AND PUSH20 0xFFFFFFFFFFFFFFFFFFFFFFFFFFFFFFFFFFFFFFFF AND DUP2 MSTORE PUSH1 0x20 ADD SWAP1 DUP2 MSTORE PUSH1 0x20 ADD PUSH0 KECCAK256 SLOAD PUSH2 0x3DE SWAP2 SWAP1 PUSH2 0x83E JUMP JUMPDEST PUSH1 0x2 PUSH0 CALLER PUSH20 0xFFFFFFFFFFFFFFFFFFFFFFFFFFFFFFFFFFFFFFFF AND PUSH20 0xFFFFFFFFFFFFFFFFFFFFFFFFFFFFFFFFFFFFFFFF AND DUP2 MSTORE PUSH1 0x20 ADD SWAP1 DUP2 MSTORE PUSH1 0x20 ADD PUSH0 KECCAK256 DUP2 SWAP1 SSTORE POP JUMP JUMPDEST PUSH0 PUSH0 PUSH2 0x42B PUSH2 0x459 JUMP JUMPDEST SWAP1 POP PUSH0 PUSH8 0xDE0B6B3A7640000 DUP5 DUP4 PUSH2 0x443 SWAP2 SWAP1 PUSH2 0x871 JUMP JUMPDEST PUSH2 0x44D SWAP2 SWAP1 PUSH2 0x8DF JUMP JUMPDEST SWAP1 POP DUP1 SWAP3 POP POP POP SWAP2 SWAP1 POP JUMP JUMPDEST PUSH0 PUSH0 PUSH20 0x694AA1769357215DE4FAC081BF1F309ADC325306 SWAP1 POP PUSH0 DUP2 PUSH20 0xFFFFFFFFFFFFFFFFFFFFFFFFFFFFFFFFFFFFFFFF AND PUSH4 0xFEAF968C PUSH1 0x40 MLOAD DUP2 PUSH4 0xFFFFFFFF AND PUSH1 0xE0 SHL DUP2 MSTORE PUSH1 0x4 ADD PUSH1 0xA0 PUSH1 0x40 MLOAD DUP1 DUP4 SUB DUP2 DUP7 GAS STATICCALL ISZERO DUP1 ISZERO PUSH2 0x4BC JUMPI RETURNDATASIZE PUSH0 PUSH0 RETURNDATACOPY RETURNDATASIZE PUSH0 REVERT JUMPDEST POP POP POP POP PUSH1 0x40 MLOAD RETURNDATASIZE PUSH1 0x1F NOT PUSH1 0x1F DUP3 ADD AND DUP3 ADD DUP1 PUSH1 0x40 MSTORE POP DUP2 ADD SWAP1 PUSH2 0x4E0 SWAP2 SWAP1 PUSH2 0x995 JUMP JUMPDEST POP POP POP SWAP2 POP POP PUSH5 0x2540BE400 DUP2 PUSH2 0x4F7 SWAP2 SWAP1 PUSH2 0xA0C JUMP JUMPDEST SWAP3 POP POP POP SWAP1 JUMP JUMPDEST DUP3 DUP1 SLOAD DUP3 DUP3 SSTORE SWAP1 PUSH0 MSTORE PUSH1 0x20 PUSH0 KECCAK256 SWAP1 DUP2 ADD SWAP3 DUP3 ISZERO PUSH2 0x574 JUMPI SWAP2 PUSH1 0x20 MUL DUP3 ADD JUMPDEST DUP3 DUP2 GT ISZERO PUSH2 0x573 JUMPI DUP3 MLOAD DUP3 PUSH0 PUSH2 0x100 EXP DUP2 SLOAD DUP2 PUSH20 0xFFFFFFFFFFFFFFFFFFFFFFFFFFFFFFFFFFFFFFFF MUL NOT AND SWAP1 DUP4 PUSH20 0xFFFFFFFFFFFFFFFFFFFFFFFFFFFFFFFFFFFFFFFF AND MUL OR SWAP1 SSTORE POP SWAP2 PUSH1 0x20 ADD SWAP2 SWAP1 PUSH1 0x1 ADD SWAP1 PUSH2 0x51C JUMP JUMPDEST JUMPDEST POP SWAP1 POP PUSH2 0x581 SWAP2 SWAP1 PUSH2 0x585 JUMP JUMPDEST POP SWAP1 JUMP JUMPDEST JUMPDEST DUP1 DUP3 GT ISZERO PUSH2 0x59C JUMPI PUSH0 DUP2 PUSH0 SWAP1 SSTORE POP PUSH1 0x1 ADD PUSH2 0x586 JUMP JUMPDEST POP SWAP1 JUMP JUMPDEST PUSH0 PUSH0 REVERT JUMPDEST PUSH0 DUP2 SWAP1 POP SWAP2 SWAP1 POP JUMP JUMPDEST PUSH2 0x5B6 DUP2 PUSH2 0x5A4 JUMP JUMPDEST DUP2 EQ PUSH2 0x5C0 JUMPI PUSH0 PUSH0 REVERT JUMPDEST POP JUMP JUMPDEST PUSH0 DUP2 CALLDATALOAD SWAP1 POP PUSH2 0x5D1 DUP2 PUSH2 0x5AD JUMP JUMPDEST SWAP3 SWAP2 POP POP JUMP JUMPDEST PUSH0 PUSH1 0x20 DUP3 DUP5 SUB SLT ISZERO PUSH2 0x5EC JUMPI PUSH2 0x5EB PUSH2 0x5A0 JUMP JUMPDEST JUMPDEST PUSH0 PUSH2 0x5F9 DUP5 DUP3 DUP6 ADD PUSH2 0x5C3 JUMP JUMPDEST SWAP2 POP POP SWAP3 SWAP2 POP POP JUMP JUMPDEST PUSH0 PUSH20 0xFFFFFFFFFFFFFFFFFFFFFFFFFFFFFFFFFFFFFFFF DUP3 AND SWAP1 POP SWAP2 SWAP1 POP JUMP JUMPDEST PUSH0 PUSH2 0x62B DUP3 PUSH2 0x602 JUMP JUMPDEST SWAP1 POP SWAP2 SWAP1 POP JUMP JUMPDEST PUSH2 0x63B DUP2 PUSH2 0x621 JUMP JUMPDEST DUP3 MSTORE POP POP JUMP JUMPDEST PUSH0 PUSH1 0x20 DUP3 ADD SWAP1 POP PUSH2 0x654 PUSH0 DUP4 ADD DUP5 PUSH2 0x632 JUMP JUMPDEST SWAP3 SWAP2 POP POP JUMP JUMPDEST PUSH2 0x663 DUP2 PUSH2 0x621 JUMP JUMPDEST DUP2 EQ PUSH2 0x66D JUMPI PUSH0 PUSH0 REVERT JUMPDEST POP JUMP JUMPDEST PUSH0 DUP2 CALLDATALOAD SWAP1 POP PUSH2 0x67E DUP2 PUSH2 0x65A JUMP JUMPDEST SWAP3 SWAP2 POP POP JUMP JUMPDEST PUSH0 PUSH1 0x20 DUP3 DUP5 SUB SLT ISZERO PUSH2 0x699 JUMPI PUSH2 0x698 PUSH2 0x5A0 JUMP JUMPDEST JUMPDEST PUSH0 PUSH2 0x6A6 DUP5 DUP3 DUP6 ADD PUSH2 0x670 JUMP JUMPDEST SWAP2 POP POP SWAP3 SWAP2 POP POP JUMP JUMPDEST PUSH2 0x6B8 DUP2 PUSH2 0x5A4 JUMP JUMPDEST DUP3 MSTORE POP POP JUMP JUMPDEST PUSH0 PUSH1 0x20 DUP3 ADD SWAP1 POP PUSH2 0x6D1 PUSH0 DUP4 ADD DUP5 PUSH2 0x6AF JUMP JUMPDEST SWAP3 SWAP2 POP POP JUMP JUMPDEST PUSH32 0x4E487B7100000000000000000000000000000000000000000000000000000000 PUSH0 MSTORE PUSH1 0x32 PUSH1 0x4 MSTORE PUSH1 0x24 PUSH0 REVERT JUMPDEST PUSH32 0x4E487B7100000000000000000000000000000000000000000000000000000000 PUSH0 MSTORE PUSH1 0x41 PUSH1 0x4 MSTORE PUSH1 0x24 PUSH0 REVERT JUMPDEST PUSH0 DUP3 DUP3 MSTORE PUSH1 0x20 DUP3 ADD SWAP1 POP SWAP3 SWAP2 POP POP JUMP JUMPDEST PUSH32 0x4572726F7220696E2073656E64696E6720746865207472616E73616374696F6E PUSH0 DUP3 ADD MSTORE POP JUMP JUMPDEST PUSH0 PUSH2 0x775 PUSH1 0x20 DUP4 PUSH2 0x731 JUMP JUMPDEST SWAP2 POP PUSH2 0x780 DUP3 PUSH2 0x741 JUMP JUMPDEST PUSH1 0x20 DUP3 ADD SWAP1 POP SWAP2 SWAP1 POP JUMP JUMPDEST PUSH0 PUSH1 0x20 DUP3 ADD SWAP1 POP DUP2 DUP2 SUB PUSH0 DUP4 ADD MSTORE PUSH2 0x7A2 DUP2 PUSH2 0x769 JUMP JUMPDEST SWAP1 POP SWAP2 SWAP1 POP JUMP JUMPDEST PUSH32 0x4469646E2C742073656E6420656E6F7567682075736400000000000000000000 PUSH0 DUP3 ADD MSTORE POP JUMP JUMPDEST PUSH0 PUSH2 0x7DD PUSH1 0x16 DUP4 PUSH2 0x731 JUMP JUMPDEST SWAP2 POP PUSH2 0x7E8 DUP3 PUSH2 0x7A9 JUMP JUMPDEST PUSH1 0x20 DUP3 ADD SWAP1 POP SWAP2 SWAP1 POP JUMP JUMPDEST PUSH0 PUSH1 0x20 DUP3 ADD SWAP1 POP DUP2 DUP2 SUB PUSH0 DUP4 ADD MSTORE PUSH2 0x80A DUP2 PUSH2 0x7D1 JUMP JUMPDEST SWAP1 POP SWAP2 SWAP1 POP JUMP JUMPDEST PUSH32 0x4E487B7100000000000000000000000000000000000000000000000000000000 PUSH0 MSTORE PUSH1 0x11 PUSH1 0x4 MSTORE PUSH1 0x24 PUSH0 REVERT JUMPDEST PUSH0 PUSH2 0x848 DUP3 PUSH2 0x5A4 JUMP JUMPDEST SWAP2 POP PUSH2 0x853 DUP4 PUSH2 0x5A4 JUMP JUMPDEST SWAP3 POP DUP3 DUP3 ADD SWAP1 POP DUP1 DUP3 GT ISZERO PUSH2 0x86B JUMPI PUSH2 0x86A PUSH2 0x811 JUMP JUMPDEST JUMPDEST SWAP3 SWAP2 POP POP JUMP JUMPDEST PUSH0 PUSH2 0x87B DUP3 PUSH2 0x5A4 JUMP JUMPDEST SWAP2 POP PUSH2 0x886 DUP4 PUSH2 0x5A4 JUMP JUMPDEST SWAP3 POP DUP3 DUP3 MUL PUSH2 0x894 DUP2 PUSH2 0x5A4 JUMP JUMPDEST SWAP2 POP DUP3 DUP3 DIV DUP5 EQ DUP4 ISZERO OR PUSH2 0x8AB JUMPI PUSH2 0x8AA PUSH2 0x811 JUMP JUMPDEST JUMPDEST POP SWAP3 SWAP2 POP POP JUMP JUMPDEST PUSH32 0x4E487B7100000000000000000000000000000000000000000000000000000000 PUSH0 MSTORE PUSH1 0x12 PUSH1 0x4 MSTORE PUSH1 0x24 PUSH0 REVERT JUMPDEST PUSH0 PUSH2 0x8E9 DUP3 PUSH2 0x5A4 JUMP JUMPDEST SWAP2 POP PUSH2 0x8F4 DUP4 PUSH2 0x5A4 JUMP JUMPDEST SWAP3 POP DUP3 PUSH2 0x904 JUMPI PUSH2 0x903 PUSH2 0x8B2 JUMP JUMPDEST JUMPDEST DUP3 DUP3 DIV SWAP1 POP SWAP3 SWAP2 POP POP JUMP JUMPDEST PUSH0 PUSH10 0xFFFFFFFFFFFFFFFFFFFF DUP3 AND SWAP1 POP SWAP2 SWAP1 POP JUMP JUMPDEST PUSH2 0x92D DUP2 PUSH2 0x90F JUMP JUMPDEST DUP2 EQ PUSH2 0x937 JUMPI PUSH0 PUSH0 REVERT JUMPDEST POP JUMP JUMPDEST PUSH0 DUP2 MLOAD SWAP1 POP PUSH2 0x948 DUP2 PUSH2 0x924 JUMP JUMPDEST SWAP3 SWAP2 POP POP JUMP JUMPDEST PUSH0 DUP2 SWAP1 POP SWAP2 SWAP1 POP JUMP JUMPDEST PUSH2 0x960 DUP2 PUSH2 0x94E JUMP JUMPDEST DUP2 EQ PUSH2 0x96A JUMPI PUSH0 PUSH0 REVERT JUMPDEST POP JUMP JUMPDEST PUSH0 DUP2 MLOAD SWAP1 POP PUSH2 0x97B DUP2 PUSH2 0x957 JUMP JUMPDEST SWAP3 SWAP2 POP POP JUMP JUMPDEST PUSH0 DUP2 MLOAD SWAP1 POP PUSH2 0x98F DUP2 PUSH2 0x5AD JUMP JUMPDEST SWAP3 SWAP2 POP POP JUMP JUMPDEST PUSH0 PUSH0 PUSH0 PUSH0 PUSH0 PUSH1 0xA0 DUP7 DUP9 SUB SLT ISZERO PUSH2 0x9AE JUMPI PUSH2 0x9AD PUSH2 0x5A0 JUMP JUMPDEST JUMPDEST PUSH0 PUSH2 0x9BB DUP9 DUP3 DUP10 ADD PUSH2 0x93A JUMP JUMPDEST SWAP6 POP POP PUSH1 0x20 PUSH2 0x9CC DUP9 DUP3 DUP10 ADD PUSH2 0x96D JUMP JUMPDEST SWAP5 POP POP PUSH1 0x40 PUSH2 0x9DD DUP9 DUP3 DUP10 ADD PUSH2 0x981 JUMP JUMPDEST SWAP4 POP POP PUSH1 0x60 PUSH2 0x9EE DUP9 DUP3 DUP10 ADD PUSH2 0x981 JUMP JUMPDEST SWAP3 POP POP PUSH1 0x80 PUSH2 0x9FF DUP9 DUP3 DUP10 ADD PUSH2 0x93A JUMP JUMPDEST SWAP2 POP POP SWAP3 SWAP6 POP SWAP3 SWAP6 SWAP1 SWAP4 POP JUMP JUMPDEST PUSH0 PUSH2 0xA16 DUP3 PUSH2 0x94E JUMP JUMPDEST SWAP2 POP PUSH2 0xA21 DUP4 PUSH2 0x94E JUMP JUMPDEST SWAP3 POP DUP3 DUP3 MUL PUSH2 0xA2F DUP2 PUSH2 0x94E JUMP JUMPDEST SWAP2 POP PUSH32 0x8000000000000000000000000000000000000000000000000000000000000000 DUP5 EQ PUSH0 DUP5 SLT AND ISZERO PUSH2 0xA66 JUMPI PUSH2 0xA65 PUSH2 0x811 JUMP JUMPDEST JUMPDEST DUP3 DUP3 SDIV DUP5 EQ DUP4 ISZERO OR PUSH2 0xA7B JUMPI PUSH2 0xA7A PUSH2 0x811 JUMP JUMPDEST JUMPDEST POP SWAP3 SWAP2 POP POP JUMP INVALID LOG2 PUSH5 0x6970667358 0x22 SLT KECCAK256 0xBA 0xCF PUSH30 0x4B174B4D2649BA28C97A903538938A96AEA945289EA5B6054D9037D49A64 PUSH20 0x6F6C634300081E00330000000000000000000000 "
				},
				"gasEstimates": {
					"creation": {
						"codeDepositCost": "548800",
						"executionCost": "22684",
						"totalCost": "571484"
					},
					"external": {
						"addresstoAmount(address)": "2824",
						"fund()": "infinite",
						"funder(uint256)": "4922",
						"withdraw()": "infinite"
					}
				},
				"methodIdentifiers": {
					"addresstoAmount(address)": "768a03bc",
					"fund()": "b60d4288",
					"funder(uint256)": "1f2c9238",
					"withdraw()": "3ccfd60b"
				}
			},
			"storageLayout": {
				"storage": [
					{
						"astId": 110,
						"contract": "fundme.sol:FundMe",
						"label": "minimumUsd",
						"offset": 0,
						"slot": "0",
						"type": "t_uint256"
					},
					{
						"astId": 113,
						"contract": "fundme.sol:FundMe",
						"label": "funder",
						"offset": 0,
						"slot": "1",
						"type": "t_array(t_address)dyn_storage"
					},
					{
						"astId": 117,
						"contract": "fundme.sol:FundMe",
						"label": "addresstoAmount",
						"offset": 0,
						"slot": "2",
						"type": "t_mapping(t_address,t_uint256)"
					}
				],
				"types": {
					"t_address": {
						"encoding": "inplace",
						"label": "address",
						"numberOfBytes": "20"
					},
					"t_array(t_address)dyn_storage": {
						"base": "t_address",
						"encoding": "dynamic_array",
						"label": "address[]",
						"numberOfBytes": "32"
					},
					"t_mapping(t_address,t_uint256)": {
						"encoding": "mapping",
						"key": "t_address",
						"label": "mapping(address => uint256)",
						"numberOfBytes": "32",
						"value": "t_uint256"
					},
					"t_uint256": {
						"encoding": "inplace",
						"label": "uint256",
						"numberOfBytes": "32"
					}
				}
			},
			"userdoc": {
				"kind": "user",
				"methods": {},
				"version": 1
			}
		}
	}
}